:020000040000fa
:080000000001040000000000f3
:020000040000fa
:10020000ef8220000eff20000e0188000000000099
:1002100000012000200288000c0007006037200049
:100220000100200011000700000020000000e00095
:10023000020032000000020000000000a6030200dd
:10024000000000000040da000000fe004440a90069
:10025000e00020000000e000030032000000200069
:10026000a00188004440a800000006009101880019
:10027000800078000000eb0015003700e2804000ad
:1002800032a0b4009101ba00e280400032a0b40074
:100290009102ba00e280400032a0b4000002eb00fc
:1002a000472bde00f507b200602ce10004003a00a5
:1002b0000059eb008301e900fdff3e000400370018
:1002c0006128e100010032000082eb000400070019
:1002d0001101ba000200e000e8ff3a000000060049
:1002e0003159ba008301e9000c0032002159ba00eb
:1002f0008301e900080032000400e00003003a0036
:10030000e280400032a0b400f5ff370011d9ba00f6
:100310008301e900faff3a008100e800e180400033
:1003200032a0b400000006000000fa008020a900fe
:10033000ffff37000000fa008060a900ffff3700d0
:100340000000fa008040a900ffff37000000fa001b
:100350008080a900ffff37000000fa008020a9007c
:10036000ffff37000000fa008060a900ffff3700a0
:100370000000fa008040a900ffff37000000fa00eb
:100380008080a900ffff37000000fa00ffff370060
:10039000889fbe000004be00050037000000fb007f
:1003a0008900780012000700e10f400004003200cd
:1003b00038407800e04f5000f8ff3a000000eb00b2
:1003c0004f04be0000000600881f7800c180200096
:1003d000efff070000047800c1802000a00020008b
:1003e00003000700080078004f04780000000600b2
:1003f000889fbe000104780038029000e20262008b
:100400008084eb003b003200040378000620b20039
:100410009802900002003a00e08f520035003a0046
:100420000490a0003404980080047800f90fb20012
:10043000e08f520002003a00a8029000050c7800fc
:10044000ea8f540005003a000408b20003003a00a5
:1004500088007800d0002000e5ff07001802900017
:10046000d8029000850f52000b0032000402e80011
:100470001404980018027800094a7800040ce80077
:1004800015c0b30064822000054a7800ea8f54004a
:1004900018003a000500370088007800094078000d
:1004a000170007008004780012003700380290001f
:1004b0000410b2000f00320018019000a800900054
:1004c000480090005200070018029000840f50006e
:1004d00004003200380290000403b3003404980092
:1004e0008084eb000002eb001404980028029000c6
:1004f000040c7800090078004f04be0000000600dc
:100500000200fa00889fbe00a0ff9f00010478004f
:1005100038029000840278000504b2000200320024
:100520000000fb0035003700e202620005003a00df
:100530000403b30034049800150498000080eb0015
:100540002e003700d8049000e08f540006003a00d7
:1005500012002000e6805700480090002c000700a1
:100560001904980023003700a8029000e08f520081
:1005700008003a009582200025049800050c7800b8
:100580002500200055049800150498000430a000b0
:100590003404980018019000a800900048009000d2
:1005a0001b000700280290008082eb0015049800d1
:1005b000affa9700054a7800040ce8002ffa97007c
:1005c000ea4f52000b003a00380290000410b200cb
:1005d0000800320018019000a80090004800900028
:1005e0000b0007000002eb0014049800a802900022
:1005f000050c78002ffa97000400fb004f04be00a2
:100600000080fa000000060000c0da0000000600ca
:100610000a00fa00e20f500022003e006441800010
:10062000e10f520006003200e7212000a621200041
:100630008421200065212000e08f530004003a004f
:100640004721200006212000e4202000c5202000b2
:10065000000028001500600003003a00800b7800bd
:1006600007002800958a73000540200094826200ec
:1006700001003a0014a0a0008202780006003700b2
:10068000940378000710b200fdff3200b103fb00b5
:10069000070b78008502e900e08f5200f8ff3a006e
:1006a0000800370034002000b4bf9f00c0bf9f0087
:1006b000d1bf9f00e2bf9f006a805700d2ff0700b2
:1006c0006fb99700020078000080fa000000060071
:020000040000fa
:10000800c4010000940100009a010000a001000052
:10001800a6010000c4010000c4010000c4010000e2
:10002800c4010000c4010000c4010000c4010000b4
:10003800c4010000c4010000c4010000c4010000a4
:10004800c4010000c4010000c4010000c401000094
:10005800c4010000c4010000c4010000c401000084
:10006800c4010000c4010000c4010000c401000074
:10007800c4010000c4010000c4010000c401000064
:10008800c4010000c4010000c4010000c401000054
:10009800c4010000c4010000c4010000c401000044
:1000a800c4010000c4010000c4010000c401000034
:1000b800c4010000c4010000c4010000c401000024
:1000c800c4010000c4010000c4010000c401000014
:1000d800c4010000c4010000c4010000c401000004
:1000e800c4010000c4010000c4010000c4010000f4
:0800f800c4010000c401000076
:020000040000fa
:10010800c4010000ac010000b2010000b801000009
:10011800be010000c4010000c4010000c4010000c9
:10012800c4010000c4010000c4010000c4010000b3
:10013800c4010000c4010000c4010000c4010000a3
:10014800c4010000c4010000c4010000c401000093
:10015800c4010000c4010000c4010000c401000083
:10016800c4010000c4010000c4010000c401000073
:10017800c4010000c4010000c4010000c401000063
:10018800c4010000c4010000c4010000c401000053
:10019800c4010000c4010000c4010000c401000043
:1001a800c4010000c4010000c4010000c401000033
:1001b800c4010000c4010000c4010000c401000023
:1001c800c4010000c4010000c4010000c401000013
:1001d800c4010000c4010000c4010000c401000003
:1001e800c4010000c4010000c4010000c4010000f3
:0801f800c4010000c401000075
:020000040000fa
:1006d000486500006c6c00006f0d0000003a0000df
:0c06e000290000003a2800000000000083
:020000040000fa
:1006ec0026080000060000000000000000080000c2
:1006fc002600000002000000270800000027080068
:10070c000900000000020000290800000029080070
:10071c000e020100000000000000000000000000bc
:10072c000602020000000000000800002c08000077
:10073c0002000000020000000100000000000000a8
:020000040000fa
:10074c000000fa00250007001d0007008036280075
:10075c001aff0700ca02a800009f240021002000f5
:10076c0009000700f036280014ff0700ca02a90090
:10077c00009f2400210020000300070020372800e0
:08078c000eff0700f1ff37002a
:020000040000fa
:10079400f03fb1000180b10006003500ee0309000e
:1007a40000000000403fb1000180b100fbff3d00ac
:1007b4001000b000203fb0000200350000800900a6
:0807c400000000000000060027
:020000040000fa
:1007cc000000fa00c602a90004032000a41088004f
:1007dc000de2a8000080fa00000006000000fa00fc
:0807ec000080fa000000060085
:00000001FF
